{
  "_format": "hh-sol-artifact-1",
  "contractName": "UnemployedCardNFTFactory",
  "sourceName": "contracts/UnemployedCardNFTFactory.sol",
  "abi": [
    {
      "inputs": [],
      "stateMutability": "nonpayable",
      "type": "constructor"
    },
    {
      "inputs": [],
      "name": "No_Unemployed_Card_NFTs_To_Transfer",
      "type": "error"
    },
    {
      "anonymous": false,
      "inputs": [
        {
          "indexed": true,
          "internalType": "address",
          "name": "owner",
          "type": "address"
        },
        {
          "indexed": true,
          "internalType": "address",
          "name": "approved",
          "type": "address"
        },
        {
          "indexed": true,
          "internalType": "uint256",
          "name": "tokenId",
          "type": "uint256"
        }
      ],
      "name": "Approval",
      "type": "event"
    },
    {
      "anonymous": false,
      "inputs": [
        {
          "indexed": true,
          "internalType": "address",
          "name": "owner",
          "type": "address"
        },
        {
          "indexed": true,
          "internalType": "address",
          "name": "operator",
          "type": "address"
        },
        {
          "indexed": false,
          "internalType": "bool",
          "name": "approved",
          "type": "bool"
        }
      ],
      "name": "ApprovalForAll",
      "type": "event"
    },
    {
      "anonymous": false,
      "inputs": [
        {
          "indexed": true,
          "internalType": "address",
          "name": "from",
          "type": "address"
        },
        {
          "indexed": true,
          "internalType": "address",
          "name": "to",
          "type": "address"
        },
        {
          "indexed": true,
          "internalType": "uint256",
          "name": "tokenId",
          "type": "uint256"
        }
      ],
      "name": "Transfer",
      "type": "event"
    },
    {
      "anonymous": false,
      "inputs": [
        {
          "indexed": true,
          "internalType": "address",
          "name": "issuer",
          "type": "address"
        },
        {
          "indexed": false,
          "internalType": "string",
          "name": "name",
          "type": "string"
        },
        {
          "indexed": false,
          "internalType": "string",
          "name": "birth",
          "type": "string"
        },
        {
          "indexed": false,
          "internalType": "string",
          "name": "email",
          "type": "string"
        },
        {
          "indexed": false,
          "internalType": "string",
          "name": "phone",
          "type": "string"
        },
        {
          "indexed": false,
          "internalType": "string",
          "name": "hobby",
          "type": "string"
        },
        {
          "indexed": false,
          "internalType": "string",
          "name": "favoriteMovie",
          "type": "string"
        },
        {
          "indexed": false,
          "internalType": "string",
          "name": "favoriteSport",
          "type": "string"
        },
        {
          "indexed": false,
          "internalType": "string",
          "name": "instagramID",
          "type": "string"
        },
        {
          "indexed": false,
          "internalType": "string",
          "name": "githubID",
          "type": "string"
        },
        {
          "indexed": false,
          "internalType": "string",
          "name": "twitterID",
          "type": "string"
        }
      ],
      "name": "UnemployedCardInfoRegistered",
      "type": "event"
    },
    {
      "anonymous": false,
      "inputs": [
        {
          "indexed": true,
          "internalType": "uint256",
          "name": "tokenId",
          "type": "uint256"
        },
        {
          "indexed": false,
          "internalType": "address",
          "name": "issuer",
          "type": "address"
        },
        {
          "indexed": false,
          "internalType": "uint256",
          "name": "amountOfTokenOwnedByIssuer",
          "type": "uint256"
        }
      ],
      "name": "UnemployedCardNFTMinted",
      "type": "event"
    },
    {
      "anonymous": false,
      "inputs": [
        {
          "indexed": true,
          "internalType": "address",
          "name": "to",
          "type": "address"
        },
        {
          "indexed": false,
          "internalType": "address",
          "name": "from",
          "type": "address"
        },
        {
          "indexed": false,
          "internalType": "uint256",
          "name": "tokenId",
          "type": "uint256"
        },
        {
          "indexed": false,
          "internalType": "uint256",
          "name": "amountOfTokenOwnedByIssuer",
          "type": "uint256"
        }
      ],
      "name": "UnemployedCardNFTTransfered",
      "type": "event"
    },
    {
      "inputs": [
        {
          "internalType": "address",
          "name": "to",
          "type": "address"
        },
        {
          "internalType": "uint256",
          "name": "tokenId",
          "type": "uint256"
        }
      ],
      "name": "approve",
      "outputs": [],
      "stateMutability": "nonpayable",
      "type": "function"
    },
    {
      "inputs": [
        {
          "internalType": "address",
          "name": "owner",
          "type": "address"
        }
      ],
      "name": "balanceOf",
      "outputs": [
        {
          "internalType": "uint256",
          "name": "",
          "type": "uint256"
        }
      ],
      "stateMutability": "view",
      "type": "function"
    },
    {
      "inputs": [
        {
          "internalType": "address",
          "name": "issuer",
          "type": "address"
        }
      ],
      "name": "getAmountOfTokenOwnedByIssuer",
      "outputs": [
        {
          "internalType": "uint256",
          "name": "",
          "type": "uint256"
        }
      ],
      "stateMutability": "view",
      "type": "function"
    },
    {
      "inputs": [
        {
          "internalType": "uint256",
          "name": "tokenId",
          "type": "uint256"
        }
      ],
      "name": "getApproved",
      "outputs": [
        {
          "internalType": "address",
          "name": "",
          "type": "address"
        }
      ],
      "stateMutability": "view",
      "type": "function"
    },
    {
      "inputs": [
        {
          "internalType": "address",
          "name": "issuer",
          "type": "address"
        }
      ],
      "name": "getUnemployedCardInfo",
      "outputs": [
        {
          "components": [
            {
              "internalType": "string",
              "name": "name",
              "type": "string"
            },
            {
              "internalType": "string",
              "name": "birth",
              "type": "string"
            },
            {
              "internalType": "string",
              "name": "email",
              "type": "string"
            },
            {
              "internalType": "address",
              "name": "issuer",
              "type": "address"
            },
            {
              "internalType": "string",
              "name": "phone",
              "type": "string"
            },
            {
              "internalType": "string",
              "name": "hobby",
              "type": "string"
            },
            {
              "internalType": "string",
              "name": "favoriteMovie",
              "type": "string"
            },
            {
              "internalType": "string",
              "name": "favoriteSport",
              "type": "string"
            },
            {
              "internalType": "string",
              "name": "instagramID",
              "type": "string"
            },
            {
              "internalType": "string",
              "name": "githubID",
              "type": "string"
            },
            {
              "internalType": "string",
              "name": "twitterID",
              "type": "string"
            }
          ],
          "internalType": "struct UnemployedCardNFTFactory.UnemployedCardInfo",
          "name": "",
          "type": "tuple"
        }
      ],
      "stateMutability": "view",
      "type": "function"
    },
    {
      "inputs": [
        {
          "internalType": "address",
          "name": "owner",
          "type": "address"
        },
        {
          "internalType": "address",
          "name": "operator",
          "type": "address"
        }
      ],
      "name": "isApprovedForAll",
      "outputs": [
        {
          "internalType": "bool",
          "name": "",
          "type": "bool"
        }
      ],
      "stateMutability": "view",
      "type": "function"
    },
    {
      "inputs": [],
      "name": "mintUnemployedCardNFT",
      "outputs": [],
      "stateMutability": "payable",
      "type": "function"
    },
    {
      "inputs": [],
      "name": "name",
      "outputs": [
        {
          "internalType": "string",
          "name": "",
          "type": "string"
        }
      ],
      "stateMutability": "view",
      "type": "function"
    },
    {
      "inputs": [
        {
          "internalType": "uint256",
          "name": "tokenId",
          "type": "uint256"
        }
      ],
      "name": "ownerOf",
      "outputs": [
        {
          "internalType": "address",
          "name": "",
          "type": "address"
        }
      ],
      "stateMutability": "view",
      "type": "function"
    },
    {
      "inputs": [
        {
          "internalType": "string",
          "name": "_name",
          "type": "string"
        },
        {
          "internalType": "string",
          "name": "_birth",
          "type": "string"
        },
        {
          "internalType": "string",
          "name": "_email",
          "type": "string"
        },
        {
          "internalType": "string",
          "name": "_phone",
          "type": "string"
        },
        {
          "internalType": "string",
          "name": "_hobby",
          "type": "string"
        },
        {
          "internalType": "string",
          "name": "_favoriteMovie",
          "type": "string"
        },
        {
          "internalType": "string",
          "name": "_favoriteSport",
          "type": "string"
        },
        {
          "internalType": "string",
          "name": "_instagramID",
          "type": "string"
        },
        {
          "internalType": "string",
          "name": "_githubID",
          "type": "string"
        },
        {
          "internalType": "string",
          "name": "_twitterID",
          "type": "string"
        }
      ],
      "name": "registerUnemployedCardInfo",
      "outputs": [],
      "stateMutability": "nonpayable",
      "type": "function"
    },
    {
      "inputs": [
        {
          "internalType": "address",
          "name": "from",
          "type": "address"
        },
        {
          "internalType": "address",
          "name": "to",
          "type": "address"
        },
        {
          "internalType": "uint256",
          "name": "tokenId",
          "type": "uint256"
        }
      ],
      "name": "safeTransferFrom",
      "outputs": [],
      "stateMutability": "nonpayable",
      "type": "function"
    },
    {
      "inputs": [
        {
          "internalType": "address",
          "name": "from",
          "type": "address"
        },
        {
          "internalType": "address",
          "name": "to",
          "type": "address"
        },
        {
          "internalType": "uint256",
          "name": "tokenId",
          "type": "uint256"
        },
        {
          "internalType": "bytes",
          "name": "data",
          "type": "bytes"
        }
      ],
      "name": "safeTransferFrom",
      "outputs": [],
      "stateMutability": "nonpayable",
      "type": "function"
    },
    {
      "inputs": [
        {
          "internalType": "address",
          "name": "operator",
          "type": "address"
        },
        {
          "internalType": "bool",
          "name": "approved",
          "type": "bool"
        }
      ],
      "name": "setApprovalForAll",
      "outputs": [],
      "stateMutability": "nonpayable",
      "type": "function"
    },
    {
      "inputs": [
        {
          "internalType": "bytes4",
          "name": "interfaceId",
          "type": "bytes4"
        }
      ],
      "name": "supportsInterface",
      "outputs": [
        {
          "internalType": "bool",
          "name": "",
          "type": "bool"
        }
      ],
      "stateMutability": "view",
      "type": "function"
    },
    {
      "inputs": [],
      "name": "symbol",
      "outputs": [
        {
          "internalType": "string",
          "name": "",
          "type": "string"
        }
      ],
      "stateMutability": "view",
      "type": "function"
    },
    {
      "inputs": [],
      "name": "tokenId",
      "outputs": [
        {
          "internalType": "uint256",
          "name": "",
          "type": "uint256"
        }
      ],
      "stateMutability": "view",
      "type": "function"
    },
    {
      "inputs": [
        {
          "internalType": "uint256",
          "name": "tokenId",
          "type": "uint256"
        }
      ],
      "name": "tokenURI",
      "outputs": [
        {
          "internalType": "string",
          "name": "",
          "type": "string"
        }
      ],
      "stateMutability": "view",
      "type": "function"
    },
    {
      "inputs": [
        {
          "internalType": "address",
          "name": "from",
          "type": "address"
        },
        {
          "internalType": "address",
          "name": "to",
          "type": "address"
        },
        {
          "internalType": "uint256",
          "name": "tokenId",
          "type": "uint256"
        }
      ],
      "name": "transferFrom",
      "outputs": [],
      "stateMutability": "nonpayable",
      "type": "function"
    },
    {
      "inputs": [
        {
          "internalType": "address",
          "name": "to",
          "type": "address"
        }
      ],
      "name": "transferUnemployedCardNFT",
      "outputs": [],
      "stateMutability": "nonpayable",
      "type": "function"
    }
  ],
  "bytecode": "0x60806040523480156200001157600080fd5b506040518060400160405280601181526020017f756e656d706c6f796564436172644e46540000000000000000000000000000008152506040518060400160405280600681526020017f554543617264000000000000000000000000000000000000000000000000000081525081600090816200008f919062000324565b508060019081620000a1919062000324565b5050506200040b565b600081519050919050565b7f4e487b7100000000000000000000000000000000000000000000000000000000600052604160045260246000fd5b7f4e487b7100000000000000000000000000000000000000000000000000000000600052602260045260246000fd5b600060028204905060018216806200012c57607f821691505b602082108103620001425762000141620000e4565b5b50919050565b60008190508160005260206000209050919050565b60006020601f8301049050919050565b600082821b905092915050565b600060088302620001ac7fffffffffffffffffffffffffffffffffffffffffffffffffffffffffffffffff826200016d565b620001b886836200016d565b95508019841693508086168417925050509392505050565b6000819050919050565b6000819050919050565b600062000205620001ff620001f984620001d0565b620001da565b620001d0565b9050919050565b6000819050919050565b6200022183620001e4565b6200023962000230826200020c565b8484546200017a565b825550505050565b600090565b6200025062000241565b6200025d81848462000216565b505050565b5b8181101562000285576200027960008262000246565b60018101905062000263565b5050565b601f821115620002d4576200029e8162000148565b620002a9846200015d565b81016020851015620002b9578190505b620002d1620002c8856200015d565b83018262000262565b50505b505050565b600082821c905092915050565b6000620002f960001984600802620002d9565b1980831691505092915050565b6000620003148383620002e6565b9150826002028217905092915050565b6200032f82620000aa565b67ffffffffffffffff8111156200034b576200034a620000b5565b5b62000357825462000113565b6200036482828562000289565b600060209050601f8311600181146200039c576000841562000387578287015190505b62000393858262000306565b86555062000403565b601f198416620003ac8662000148565b60005b82811015620003d657848901518255600182019150602085019450602081019050620003af565b86831015620003f65784890151620003f2601f891682620002e6565b8355505b6001600288020188555050505b505050505050565b614dae806200041b6000396000f3fe6080604052600436106101145760003560e01c8063537e83bf116100a0578063a22cb46511610064578063a22cb465146103a2578063ae23efcf146103cb578063b88d4fde14610408578063c87b56dd14610431578063e985e9c51461046e57610114565b8063537e83bf146102975780636352211e146102d457806370a08231146103115780638a7c879f1461034e57806395d89b411461037757610114565b806317d70f7c116100e757806317d70f7c146101e757806323b872dd146102125780632e67ee7c1461023b57806342842e0e146102455780634e5af4341461026e57610114565b806301ffc9a71461011957806306fdde0314610156578063081812fc14610181578063095ea7b3146101be575b600080fd5b34801561012557600080fd5b50610140600480360381019061013b9190613630565b6104ab565b60405161014d9190613678565b60405180910390f35b34801561016257600080fd5b5061016b61058d565b6040516101789190613723565b60405180910390f35b34801561018d57600080fd5b506101a860048036038101906101a3919061377b565b61061f565b6040516101b591906137e9565b60405180910390f35b3480156101ca57600080fd5b506101e560048036038101906101e09190613830565b610665565b005b3480156101f357600080fd5b506101fc61077c565b604051610209919061387f565b60405180910390f35b34801561021e57600080fd5b506102396004803603810190610234919061389a565b610782565b005b6102436107e2565b005b34801561025157600080fd5b5061026c6004803603810190610267919061389a565b6110ef565b005b34801561027a57600080fd5b5061029560048036038101906102909190613a22565b61110f565b005b3480156102a357600080fd5b506102be60048036038101906102b99190613c19565b61134b565b6040516102cb919061387f565b60405180910390f35b3480156102e057600080fd5b506102fb60048036038101906102f6919061377b565b611394565b60405161030891906137e9565b60405180910390f35b34801561031d57600080fd5b5061033860048036038101906103339190613c19565b61141a565b604051610345919061387f565b60405180910390f35b34801561035a57600080fd5b5061037560048036038101906103709190613c19565b6114d1565b005b34801561038357600080fd5b5061038c611f95565b6040516103999190613723565b60405180910390f35b3480156103ae57600080fd5b506103c960048036038101906103c49190613c72565b612027565b005b3480156103d757600080fd5b506103f260048036038101906103ed9190613c19565b61203d565b6040516103ff9190613e39565b60405180910390f35b34801561041457600080fd5b5061042f600480360381019061042a9190613efc565b6126a1565b005b34801561043d57600080fd5b506104586004803603810190610453919061377b565b612703565b6040516104659190613723565b60405180910390f35b34801561047a57600080fd5b5061049560048036038101906104909190613f7f565b61276b565b6040516104a29190613678565b60405180910390f35b60007f80ac58cd000000000000000000000000000000000000000000000000000000007bffffffffffffffffffffffffffffffffffffffffffffffffffffffff1916827bffffffffffffffffffffffffffffffffffffffffffffffffffffffff1916148061057657507f5b5e139f000000000000000000000000000000000000000000000000000000007bffffffffffffffffffffffffffffffffffffffffffffffffffffffff1916827bffffffffffffffffffffffffffffffffffffffffffffffffffffffff1916145b806105865750610585826127ff565b5b9050919050565b60606000805461059c90613fee565b80601f01602080910402602001604051908101604052809291908181526020018280546105c890613fee565b80156106155780601f106105ea57610100808354040283529160200191610615565b820191906000526020600020905b8154815290600101906020018083116105f857829003601f168201915b5050505050905090565b600061062a82612869565b6004600083815260200190815260200160002060009054906101000a900473ffffffffffffffffffffffffffffffffffffffff169050919050565b600061067082611394565b90508073ffffffffffffffffffffffffffffffffffffffff168373ffffffffffffffffffffffffffffffffffffffff16036106e0576040517f08c379a00000000000000000000000000000000000000000000000000000000081526004016106d790614091565b60405180910390fd5b8073ffffffffffffffffffffffffffffffffffffffff166106ff6128b4565b73ffffffffffffffffffffffffffffffffffffffff16148061072e575061072d816107286128b4565b61276b565b5b61076d576040517f08c379a000000000000000000000000000000000000000000000000000000000815260040161076490614123565b60405180910390fd5b61077783836128bc565b505050565b60065481565b61079361078d6128b4565b82612975565b6107d2576040517f08c379a00000000000000000000000000000000000000000000000000000000081526004016107c9906141b5565b60405180910390fd5b6107dd838383612a0a565b505050565b6000600760003373ffffffffffffffffffffffffffffffffffffffff1673ffffffffffffffffffffffffffffffffffffffff1681526020019081526020016000206040518061016001604052908160008201805461083f90613fee565b80601f016020809104026020016040519081016040528092919081815260200182805461086b90613fee565b80156108b85780601f1061088d576101008083540402835291602001916108b8565b820191906000526020600020905b81548152906001019060200180831161089b57829003601f168201915b505050505081526020016001820180546108d190613fee565b80601f01602080910402602001604051908101604052809291908181526020018280546108fd90613fee565b801561094a5780601f1061091f5761010080835404028352916020019161094a565b820191906000526020600020905b81548152906001019060200180831161092d57829003601f168201915b5050505050815260200160028201805461096390613fee565b80601f016020809104026020016040519081016040528092919081815260200182805461098f90613fee565b80156109dc5780601f106109b1576101008083540402835291602001916109dc565b820191906000526020600020905b8154815290600101906020018083116109bf57829003601f168201915b505050505081526020016003820160009054906101000a900473ffffffffffffffffffffffffffffffffffffffff1673ffffffffffffffffffffffffffffffffffffffff1673ffffffffffffffffffffffffffffffffffffffff168152602001600482018054610a4b90613fee565b80601f0160208091040260200160405190810160405280929190818152602001828054610a7790613fee565b8015610ac45780601f10610a9957610100808354040283529160200191610ac4565b820191906000526020600020905b815481529060010190602001808311610aa757829003601f168201915b50505050508152602001600582018054610add90613fee565b80601f0160208091040260200160405190810160405280929190818152602001828054610b0990613fee565b8015610b565780601f10610b2b57610100808354040283529160200191610b56565b820191906000526020600020905b815481529060010190602001808311610b3957829003601f168201915b50505050508152602001600682018054610b6f90613fee565b80601f0160208091040260200160405190810160405280929190818152602001828054610b9b90613fee565b8015610be85780601f10610bbd57610100808354040283529160200191610be8565b820191906000526020600020905b815481529060010190602001808311610bcb57829003601f168201915b50505050508152602001600782018054610c0190613fee565b80601f0160208091040260200160405190810160405280929190818152602001828054610c2d90613fee565b8015610c7a5780601f10610c4f57610100808354040283529160200191610c7a565b820191906000526020600020905b815481529060010190602001808311610c5d57829003601f168201915b50505050508152602001600882018054610c9390613fee565b80601f0160208091040260200160405190810160405280929190818152602001828054610cbf90613fee565b8015610d0c5780601f10610ce157610100808354040283529160200191610d0c565b820191906000526020600020905b815481529060010190602001808311610cef57829003601f168201915b50505050508152602001600982018054610d2590613fee565b80601f0160208091040260200160405190810160405280929190818152602001828054610d5190613fee565b8015610d9e5780601f10610d7357610100808354040283529160200191610d9e565b820191906000526020600020905b815481529060010190602001808311610d8157829003601f168201915b50505050508152602001600a82018054610db790613fee565b80601f0160208091040260200160405190810160405280929190818152602001828054610de390613fee565b8015610e305780601f10610e0557610100808354040283529160200191610e30565b820191906000526020600020905b815481529060010190602001808311610e1357829003601f168201915b5050505050815250509050604051602001610e4a90614206565b604051602081830303815290604052805190602001208160000151604051602001610e75919061424c565b6040516020818303038152906040528051906020012003610ecb576040517f08c379a0000000000000000000000000000000000000000000000000000000008152600401610ec2906142d5565b60405180910390fd5b60066000815480929190610ede90614324565b9190505550610eef33600654612d03565b6000600860003373ffffffffffffffffffffffffffffffffffffffff1673ffffffffffffffffffffffffffffffffffffffff16815260200190815260200160002090508060065490806001815401808255809150506001900390600052602060002001600090919091909150556001600960003373ffffffffffffffffffffffffffffffffffffffff1673ffffffffffffffffffffffffffffffffffffffff1681526020019081526020016000206000600654815260200190815260200160002060006101000a81548160ff02191690831515021790555033600a6000600654815260200190815260200160002060006101000a81548173ffffffffffffffffffffffffffffffffffffffff021916908373ffffffffffffffffffffffffffffffffffffffff160217905550600b60003373ffffffffffffffffffffffffffffffffffffffff1673ffffffffffffffffffffffffffffffffffffffff168152602001908152602001600020600081548092919061106b90614324565b91905055506006547f0b7e5fae5abca2e0958288fea9bfb1080bb695212c430031b474cc449c8483d033600b60003373ffffffffffffffffffffffffffffffffffffffff1673ffffffffffffffffffffffffffffffffffffffff168152602001908152602001600020546040516110e392919061436c565b60405180910390a25050565b61110a838383604051806020016040528060008152506126a1565b505050565b60006040518061016001604052808c81526020018b81526020018a81526020013373ffffffffffffffffffffffffffffffffffffffff16815260200189815260200188815260200187815260200186815260200185815260200184815260200183815250905080600760003373ffffffffffffffffffffffffffffffffffffffff1673ffffffffffffffffffffffffffffffffffffffff16815260200190815260200160002060008201518160000190816111ca9190614541565b5060208201518160010190816111e09190614541565b5060408201518160020190816111f69190614541565b5060608201518160030160006101000a81548173ffffffffffffffffffffffffffffffffffffffff021916908373ffffffffffffffffffffffffffffffffffffffff16021790555060808201518160040190816112539190614541565b5060a08201518160050190816112699190614541565b5060c082015181600601908161127f9190614541565b5060e08201518160070190816112959190614541565b506101008201518160080190816112ac9190614541565b506101208201518160090190816112c39190614541565b5061014082015181600a0190816112da9190614541565b509050503373ffffffffffffffffffffffffffffffffffffffff167f78f7bc5a2577a6441612b17dd45f6c5646d3af79ee36b69fc2979329b43d3b2e8c8c8c8c8c8c8c8c8c8c6040516113369a99989796959493929190614613565b60405180910390a25050505050505050505050565b6000600b60008373ffffffffffffffffffffffffffffffffffffffff1673ffffffffffffffffffffffffffffffffffffffff168152602001908152602001600020549050919050565b6000806113a083612f20565b9050600073ffffffffffffffffffffffffffffffffffffffff168173ffffffffffffffffffffffffffffffffffffffff1603611411576040517f08c379a000000000000000000000000000000000000000000000000000000000815260040161140890614741565b60405180910390fd5b80915050919050565b60008073ffffffffffffffffffffffffffffffffffffffff168273ffffffffffffffffffffffffffffffffffffffff160361148a576040517f08c379a0000000000000000000000000000000000000000000000000000000008152600401611481906147d3565b60405180910390fd5b600360008373ffffffffffffffffffffffffffffffffffffffff1673ffffffffffffffffffffffffffffffffffffffff168152602001908152602001600020549050919050565b6000600760003373ffffffffffffffffffffffffffffffffffffffff1673ffffffffffffffffffffffffffffffffffffffff1681526020019081526020016000206040518061016001604052908160008201805461152e90613fee565b80601f016020809104026020016040519081016040528092919081815260200182805461155a90613fee565b80156115a75780601f1061157c576101008083540402835291602001916115a7565b820191906000526020600020905b81548152906001019060200180831161158a57829003601f168201915b505050505081526020016001820180546115c090613fee565b80601f01602080910402602001604051908101604052809291908181526020018280546115ec90613fee565b80156116395780601f1061160e57610100808354040283529160200191611639565b820191906000526020600020905b81548152906001019060200180831161161c57829003601f168201915b5050505050815260200160028201805461165290613fee565b80601f016020809104026020016040519081016040528092919081815260200182805461167e90613fee565b80156116cb5780601f106116a0576101008083540402835291602001916116cb565b820191906000526020600020905b8154815290600101906020018083116116ae57829003601f168201915b505050505081526020016003820160009054906101000a900473ffffffffffffffffffffffffffffffffffffffff1673ffffffffffffffffffffffffffffffffffffffff1673ffffffffffffffffffffffffffffffffffffffff16815260200160048201805461173a90613fee565b80601f016020809104026020016040519081016040528092919081815260200182805461176690613fee565b80156117b35780601f10611788576101008083540402835291602001916117b3565b820191906000526020600020905b81548152906001019060200180831161179657829003601f168201915b505050505081526020016005820180546117cc90613fee565b80601f01602080910402602001604051908101604052809291908181526020018280546117f890613fee565b80156118455780601f1061181a57610100808354040283529160200191611845565b820191906000526020600020905b81548152906001019060200180831161182857829003601f168201915b5050505050815260200160068201805461185e90613fee565b80601f016020809104026020016040519081016040528092919081815260200182805461188a90613fee565b80156118d75780601f106118ac576101008083540402835291602001916118d7565b820191906000526020600020905b8154815290600101906020018083116118ba57829003601f168201915b505050505081526020016007820180546118f090613fee565b80601f016020809104026020016040519081016040528092919081815260200182805461191c90613fee565b80156119695780601f1061193e57610100808354040283529160200191611969565b820191906000526020600020905b81548152906001019060200180831161194c57829003601f168201915b5050505050815260200160088201805461198290613fee565b80601f01602080910402602001604051908101604052809291908181526020018280546119ae90613fee565b80156119fb5780601f106119d0576101008083540402835291602001916119fb565b820191906000526020600020905b8154815290600101906020018083116119de57829003601f168201915b50505050508152602001600982018054611a1490613fee565b80601f0160208091040260200160405190810160405280929190818152602001828054611a4090613fee565b8015611a8d5780601f10611a6257610100808354040283529160200191611a8d565b820191906000526020600020905b815481529060010190602001808311611a7057829003601f168201915b50505050508152602001600a82018054611aa690613fee565b80601f0160208091040260200160405190810160405280929190818152602001828054611ad290613fee565b8015611b1f5780601f10611af457610100808354040283529160200191611b1f565b820191906000526020600020905b815481529060010190602001808311611b0257829003601f168201915b5050505050815250509050604051602001611b3990614206565b604051602081830303815290604052805190602001208160000151604051602001611b64919061424c565b6040516020818303038152906040528051906020012003611bba576040517f08c379a0000000000000000000000000000000000000000000000000000000008152600401611bb1906142d5565b60405180910390fd5b6000600b60003373ffffffffffffffffffffffffffffffffffffffff1673ffffffffffffffffffffffffffffffffffffffff1681526020019081526020016000205403611c3c576040517f08c379a0000000000000000000000000000000000000000000000000000000008152600401611c3390614865565b60405180910390fd5b600080600860003373ffffffffffffffffffffffffffffffffffffffff1673ffffffffffffffffffffffffffffffffffffffff168152602001908152602001600020805480602002602001604051908101604052809291908181526020018280548015611cc857602002820191906000526020600020905b815481526020019060010190808311611cb4575b5050505050905060005b8151811015611e34576000828281518110611cf057611cef614885565b5b6020026020010151905060011515600960003373ffffffffffffffffffffffffffffffffffffffff1673ffffffffffffffffffffffffffffffffffffffff168152602001908152602001600020600083815260200190815260200160002060009054906101000a900460ff16151503611d6c5780935050611e34565b60018351611d7a91906148b4565b82148015611de9575060001515600960003373ffffffffffffffffffffffffffffffffffffffff1673ffffffffffffffffffffffffffffffffffffffff168152602001908152602001600020600083815260200190815260200160002060009054906101000a900460ff161515145b15611e20576040517f77f7be3b00000000000000000000000000000000000000000000000000000000815260040160405180910390fd5b508080611e2c90614324565b915050611cd2565b50611e403385846110ef565b6000600960003373ffffffffffffffffffffffffffffffffffffffff1673ffffffffffffffffffffffffffffffffffffffff168152602001908152602001600020600084815260200190815260200160002060006101000a81548160ff021916908315150217905550600b60003373ffffffffffffffffffffffffffffffffffffffff1673ffffffffffffffffffffffffffffffffffffffff1681526020019081526020016000206000815480929190611ef9906148e8565b91905055508373ffffffffffffffffffffffffffffffffffffffff167f3e7b1a8d744c685c9a2a7a0a1acbd6cd054cbcba28f1eaa1b6282eae5babf9b73384600b60003373ffffffffffffffffffffffffffffffffffffffff1673ffffffffffffffffffffffffffffffffffffffff16815260200190815260200160002054604051611f8793929190614911565b60405180910390a250505050565b606060018054611fa490613fee565b80601f0160208091040260200160405190810160405280929190818152602001828054611fd090613fee565b801561201d5780601f10611ff25761010080835404028352916020019161201d565b820191906000526020600020905b81548152906001019060200180831161200057829003601f168201915b5050505050905090565b6120396120326128b4565b8383612f5d565b5050565b612045613554565b600760008373ffffffffffffffffffffffffffffffffffffffff1673ffffffffffffffffffffffffffffffffffffffff168152602001908152602001600020604051806101600160405290816000820180546120a090613fee565b80601f01602080910402602001604051908101604052809291908181526020018280546120cc90613fee565b80156121195780601f106120ee57610100808354040283529160200191612119565b820191906000526020600020905b8154815290600101906020018083116120fc57829003601f168201915b5050505050815260200160018201805461213290613fee565b80601f016020809104026020016040519081016040528092919081815260200182805461215e90613fee565b80156121ab5780601f10612180576101008083540402835291602001916121ab565b820191906000526020600020905b81548152906001019060200180831161218e57829003601f168201915b505050505081526020016002820180546121c490613fee565b80601f01602080910402602001604051908101604052809291908181526020018280546121f090613fee565b801561223d5780601f106122125761010080835404028352916020019161223d565b820191906000526020600020905b81548152906001019060200180831161222057829003601f168201915b505050505081526020016003820160009054906101000a900473ffffffffffffffffffffffffffffffffffffffff1673ffffffffffffffffffffffffffffffffffffffff1673ffffffffffffffffffffffffffffffffffffffff1681526020016004820180546122ac90613fee565b80601f01602080910402602001604051908101604052809291908181526020018280546122d890613fee565b80156123255780601f106122fa57610100808354040283529160200191612325565b820191906000526020600020905b81548152906001019060200180831161230857829003601f168201915b5050505050815260200160058201805461233e90613fee565b80601f016020809104026020016040519081016040528092919081815260200182805461236a90613fee565b80156123b75780601f1061238c576101008083540402835291602001916123b7565b820191906000526020600020905b81548152906001019060200180831161239a57829003601f168201915b505050505081526020016006820180546123d090613fee565b80601f01602080910402602001604051908101604052809291908181526020018280546123fc90613fee565b80156124495780601f1061241e57610100808354040283529160200191612449565b820191906000526020600020905b81548152906001019060200180831161242c57829003601f168201915b5050505050815260200160078201805461246290613fee565b80601f016020809104026020016040519081016040528092919081815260200182805461248e90613fee565b80156124db5780601f106124b0576101008083540402835291602001916124db565b820191906000526020600020905b8154815290600101906020018083116124be57829003601f168201915b505050505081526020016008820180546124f490613fee565b80601f016020809104026020016040519081016040528092919081815260200182805461252090613fee565b801561256d5780601f106125425761010080835404028352916020019161256d565b820191906000526020600020905b81548152906001019060200180831161255057829003601f168201915b5050505050815260200160098201805461258690613fee565b80601f01602080910402602001604051908101604052809291908181526020018280546125b290613fee565b80156125ff5780601f106125d4576101008083540402835291602001916125ff565b820191906000526020600020905b8154815290600101906020018083116125e257829003601f168201915b50505050508152602001600a8201805461261890613fee565b80601f016020809104026020016040519081016040528092919081815260200182805461264490613fee565b80156126915780601f1061266657610100808354040283529160200191612691565b820191906000526020600020905b81548152906001019060200180831161267457829003601f168201915b5050505050815250509050919050565b6126b26126ac6128b4565b83612975565b6126f1576040517f08c379a00000000000000000000000000000000000000000000000000000000081526004016126e8906141b5565b60405180910390fd5b6126fd848484846130c9565b50505050565b606061270e82612869565b6000612718613125565b905060008151116127385760405180602001604052806000815250612763565b806127428461313c565b604051602001612753929190614948565b6040516020818303038152906040525b915050919050565b6000600560008473ffffffffffffffffffffffffffffffffffffffff1673ffffffffffffffffffffffffffffffffffffffff16815260200190815260200160002060008373ffffffffffffffffffffffffffffffffffffffff1673ffffffffffffffffffffffffffffffffffffffff16815260200190815260200160002060009054906101000a900460ff16905092915050565b60007f01ffc9a7000000000000000000000000000000000000000000000000000000007bffffffffffffffffffffffffffffffffffffffffffffffffffffffff1916827bffffffffffffffffffffffffffffffffffffffffffffffffffffffff1916149050919050565b6128728161320a565b6128b1576040517f08c379a00000000000000000000000000000000000000000000000000000000081526004016128a890614741565b60405180910390fd5b50565b600033905090565b816004600083815260200190815260200160002060006101000a81548173ffffffffffffffffffffffffffffffffffffffff021916908373ffffffffffffffffffffffffffffffffffffffff160217905550808273ffffffffffffffffffffffffffffffffffffffff1661292f83611394565b73ffffffffffffffffffffffffffffffffffffffff167f8c5be1e5ebec7d5bd14f71427d1e84f3dd0314c0f7b2291e5b200ac8c7c3b92560405160405180910390a45050565b60008061298183611394565b90508073ffffffffffffffffffffffffffffffffffffffff168473ffffffffffffffffffffffffffffffffffffffff1614806129c357506129c2818561276b565b5b80612a0157508373ffffffffffffffffffffffffffffffffffffffff166129e98461061f565b73ffffffffffffffffffffffffffffffffffffffff16145b91505092915050565b8273ffffffffffffffffffffffffffffffffffffffff16612a2a82611394565b73ffffffffffffffffffffffffffffffffffffffff1614612a80576040517f08c379a0000000000000000000000000000000000000000000000000000000008152600401612a77906149de565b60405180910390fd5b600073ffffffffffffffffffffffffffffffffffffffff168273ffffffffffffffffffffffffffffffffffffffff1603612aef576040517f08c379a0000000000000000000000000000000000000000000000000000000008152600401612ae690614a70565b60405180910390fd5b612afc838383600161324b565b8273ffffffffffffffffffffffffffffffffffffffff16612b1c82611394565b73ffffffffffffffffffffffffffffffffffffffff1614612b72576040517f08c379a0000000000000000000000000000000000000000000000000000000008152600401612b69906149de565b60405180910390fd5b6004600082815260200190815260200160002060006101000a81549073ffffffffffffffffffffffffffffffffffffffff02191690556001600360008573ffffffffffffffffffffffffffffffffffffffff1673ffffffffffffffffffffffffffffffffffffffff168152602001908152602001600020600082825403925050819055506001600360008473ffffffffffffffffffffffffffffffffffffffff1673ffffffffffffffffffffffffffffffffffffffff16815260200190815260200160002060008282540192505081905550816002600083815260200190815260200160002060006101000a81548173ffffffffffffffffffffffffffffffffffffffff021916908373ffffffffffffffffffffffffffffffffffffffff160217905550808273ffffffffffffffffffffffffffffffffffffffff168473ffffffffffffffffffffffffffffffffffffffff167fddf252ad1be2c89b69c2b068fc378daa952ba7f163c4a11628f55a4df523b3ef60405160405180910390a4612cfe8383836001613251565b505050565b600073ffffffffffffffffffffffffffffffffffffffff168273ffffffffffffffffffffffffffffffffffffffff1603612d72576040517f08c379a0000000000000000000000000000000000000000000000000000000008152600401612d6990614adc565b60405180910390fd5b612d7b8161320a565b15612dbb576040517f08c379a0000000000000000000000000000000000000000000000000000000008152600401612db290614b48565b60405180910390fd5b612dc960008383600161324b565b612dd28161320a565b15612e12576040517f08c379a0000000000000000000000000000000000000000000000000000000008152600401612e0990614b48565b60405180910390fd5b6001600360008473ffffffffffffffffffffffffffffffffffffffff1673ffffffffffffffffffffffffffffffffffffffff16815260200190815260200160002060008282540192505081905550816002600083815260200190815260200160002060006101000a81548173ffffffffffffffffffffffffffffffffffffffff021916908373ffffffffffffffffffffffffffffffffffffffff160217905550808273ffffffffffffffffffffffffffffffffffffffff16600073ffffffffffffffffffffffffffffffffffffffff167fddf252ad1be2c89b69c2b068fc378daa952ba7f163c4a11628f55a4df523b3ef60405160405180910390a4612f1c600083836001613251565b5050565b60006002600083815260200190815260200160002060009054906101000a900473ffffffffffffffffffffffffffffffffffffffff169050919050565b8173ffffffffffffffffffffffffffffffffffffffff168373ffffffffffffffffffffffffffffffffffffffff1603612fcb576040517f08c379a0000000000000000000000000000000000000000000000000000000008152600401612fc290614bb4565b60405180910390fd5b80600560008573ffffffffffffffffffffffffffffffffffffffff1673ffffffffffffffffffffffffffffffffffffffff16815260200190815260200160002060008473ffffffffffffffffffffffffffffffffffffffff1673ffffffffffffffffffffffffffffffffffffffff16815260200190815260200160002060006101000a81548160ff0219169083151502179055508173ffffffffffffffffffffffffffffffffffffffff168373ffffffffffffffffffffffffffffffffffffffff167f17307eab39ab6107e8899845ad3d59bd9653f200f220920489ca2b5937696c31836040516130bc9190613678565b60405180910390a3505050565b6130d4848484612a0a565b6130e084848484613257565b61311f576040517f08c379a000000000000000000000000000000000000000000000000000000000815260040161311690614c46565b60405180910390fd5b50505050565b606060405180602001604052806000815250905090565b60606000600161314b846133de565b01905060008167ffffffffffffffff81111561316a576131696138f7565b5b6040519080825280601f01601f19166020018201604052801561319c5781602001600182028036833780820191505090505b509050600082602001820190505b6001156131ff578080600190039150507f3031323334353637383961626364656600000000000000000000000000000000600a86061a8153600a85816131f3576131f2614c66565b5b049450600085036131aa575b819350505050919050565b60008073ffffffffffffffffffffffffffffffffffffffff1661322c83612f20565b73ffffffffffffffffffffffffffffffffffffffff1614159050919050565b50505050565b50505050565b60006132788473ffffffffffffffffffffffffffffffffffffffff16613531565b156133d1578373ffffffffffffffffffffffffffffffffffffffff1663150b7a026132a16128b4565b8786866040518563ffffffff1660e01b81526004016132c39493929190614cea565b6020604051808303816000875af19250505080156132ff57506040513d601f19601f820116820180604052508101906132fc9190614d4b565b60015b613381573d806000811461332f576040519150601f19603f3d011682016040523d82523d6000602084013e613334565b606091505b506000815103613379576040517f08c379a000000000000000000000000000000000000000000000000000000000815260040161337090614c46565b60405180910390fd5b805181602001fd5b63150b7a0260e01b7bffffffffffffffffffffffffffffffffffffffffffffffffffffffff1916817bffffffffffffffffffffffffffffffffffffffffffffffffffffffff1916149150506133d6565b600190505b949350505050565b600080600090507a184f03e93ff9f4daa797ed6e38ed64bf6a1f010000000000000000831061343c577a184f03e93ff9f4daa797ed6e38ed64bf6a1f010000000000000000838161343257613431614c66565b5b0492506040810190505b6d04ee2d6d415b85acef81000000008310613479576d04ee2d6d415b85acef8100000000838161346f5761346e614c66565b5b0492506020810190505b662386f26fc1000083106134a857662386f26fc10000838161349e5761349d614c66565b5b0492506010810190505b6305f5e10083106134d1576305f5e10083816134c7576134c6614c66565b5b0492506008810190505b61271083106134f65761271083816134ec576134eb614c66565b5b0492506004810190505b60648310613519576064838161350f5761350e614c66565b5b0492506002810190505b600a8310613528576001810190505b80915050919050565b6000808273ffffffffffffffffffffffffffffffffffffffff163b119050919050565b604051806101600160405280606081526020016060815260200160608152602001600073ffffffffffffffffffffffffffffffffffffffff168152602001606081526020016060815260200160608152602001606081526020016060815260200160608152602001606081525090565b6000604051905090565b600080fd5b600080fd5b60007fffffffff0000000000000000000000000000000000000000000000000000000082169050919050565b61360d816135d8565b811461361857600080fd5b50565b60008135905061362a81613604565b92915050565b600060208284031215613646576136456135ce565b5b60006136548482850161361b565b91505092915050565b60008115159050919050565b6136728161365d565b82525050565b600060208201905061368d6000830184613669565b92915050565b600081519050919050565b600082825260208201905092915050565b60005b838110156136cd5780820151818401526020810190506136b2565b60008484015250505050565b6000601f19601f8301169050919050565b60006136f582613693565b6136ff818561369e565b935061370f8185602086016136af565b613718816136d9565b840191505092915050565b6000602082019050818103600083015261373d81846136ea565b905092915050565b6000819050919050565b61375881613745565b811461376357600080fd5b50565b6000813590506137758161374f565b92915050565b600060208284031215613791576137906135ce565b5b600061379f84828501613766565b91505092915050565b600073ffffffffffffffffffffffffffffffffffffffff82169050919050565b60006137d3826137a8565b9050919050565b6137e3816137c8565b82525050565b60006020820190506137fe60008301846137da565b92915050565b61380d816137c8565b811461381857600080fd5b50565b60008135905061382a81613804565b92915050565b60008060408385031215613847576138466135ce565b5b60006138558582860161381b565b925050602061386685828601613766565b9150509250929050565b61387981613745565b82525050565b60006020820190506138946000830184613870565b92915050565b6000806000606084860312156138b3576138b26135ce565b5b60006138c18682870161381b565b93505060206138d28682870161381b565b92505060406138e386828701613766565b9150509250925092565b600080fd5b600080fd5b7f4e487b7100000000000000000000000000000000000000000000000000000000600052604160045260246000fd5b61392f826136d9565b810181811067ffffffffffffffff8211171561394e5761394d6138f7565b5b80604052505050565b60006139616135c4565b905061396d8282613926565b919050565b600067ffffffffffffffff82111561398d5761398c6138f7565b5b613996826136d9565b9050602081019050919050565b82818337600083830152505050565b60006139c56139c084613972565b613957565b9050828152602081018484840111156139e1576139e06138f2565b5b6139ec8482856139a3565b509392505050565b600082601f830112613a0957613a086138ed565b5b8135613a198482602086016139b2565b91505092915050565b6000806000806000806000806000806101408b8d031215613a4657613a456135ce565b5b60008b013567ffffffffffffffff811115613a6457613a636135d3565b5b613a708d828e016139f4565b9a505060208b013567ffffffffffffffff811115613a9157613a906135d3565b5b613a9d8d828e016139f4565b99505060408b013567ffffffffffffffff811115613abe57613abd6135d3565b5b613aca8d828e016139f4565b98505060608b013567ffffffffffffffff811115613aeb57613aea6135d3565b5b613af78d828e016139f4565b97505060808b013567ffffffffffffffff811115613b1857613b176135d3565b5b613b248d828e016139f4565b96505060a08b013567ffffffffffffffff811115613b4557613b446135d3565b5b613b518d828e016139f4565b95505060c08b013567ffffffffffffffff811115613b7257613b716135d3565b5b613b7e8d828e016139f4565b94505060e08b013567ffffffffffffffff811115613b9f57613b9e6135d3565b5b613bab8d828e016139f4565b9350506101008b013567ffffffffffffffff811115613bcd57613bcc6135d3565b5b613bd98d828e016139f4565b9250506101208b013567ffffffffffffffff811115613bfb57613bfa6135d3565b5b613c078d828e016139f4565b9150509295989b9194979a5092959850565b600060208284031215613c2f57613c2e6135ce565b5b6000613c3d8482850161381b565b91505092915050565b613c4f8161365d565b8114613c5a57600080fd5b50565b600081359050613c6c81613c46565b92915050565b60008060408385031215613c8957613c886135ce565b5b6000613c978582860161381b565b9250506020613ca885828601613c5d565b9150509250929050565b600082825260208201905092915050565b6000613cce82613693565b613cd88185613cb2565b9350613ce88185602086016136af565b613cf1816136d9565b840191505092915050565b613d05816137c8565b82525050565b6000610160830160008301518482036000860152613d298282613cc3565b91505060208301518482036020860152613d438282613cc3565b91505060408301518482036040860152613d5d8282613cc3565b9150506060830151613d726060860182613cfc565b5060808301518482036080860152613d8a8282613cc3565b91505060a083015184820360a0860152613da48282613cc3565b91505060c083015184820360c0860152613dbe8282613cc3565b91505060e083015184820360e0860152613dd88282613cc3565b915050610100830151848203610100860152613df48282613cc3565b915050610120830151848203610120860152613e108282613cc3565b915050610140830151848203610140860152613e2c8282613cc3565b9150508091505092915050565b60006020820190508181036000830152613e538184613d0b565b905092915050565b600067ffffffffffffffff821115613e7657613e756138f7565b5b613e7f826136d9565b9050602081019050919050565b6000613e9f613e9a84613e5b565b613957565b905082815260208101848484011115613ebb57613eba6138f2565b5b613ec68482856139a3565b509392505050565b600082601f830112613ee357613ee26138ed565b5b8135613ef3848260208601613e8c565b91505092915050565b60008060008060808587031215613f1657613f156135ce565b5b6000613f248782880161381b565b9450506020613f358782880161381b565b9350506040613f4687828801613766565b925050606085013567ffffffffffffffff811115613f6757613f666135d3565b5b613f7387828801613ece565b91505092959194509250565b60008060408385031215613f9657613f956135ce565b5b6000613fa48582860161381b565b9250506020613fb58582860161381b565b9150509250929050565b7f4e487b7100000000000000000000000000000000000000000000000000000000600052602260045260246000fd5b6000600282049050600182168061400657607f821691505b60208210810361401957614018613fbf565b5b50919050565b7f4552433732313a20617070726f76616c20746f2063757272656e74206f776e6560008201527f7200000000000000000000000000000000000000000000000000000000000000602082015250565b600061407b60218361369e565b91506140868261401f565b604082019050919050565b600060208201905081810360008301526140aa8161406e565b9050919050565b7f4552433732313a20617070726f76652063616c6c6572206973206e6f7420746f60008201527f6b656e206f776e6572206f7220617070726f76656420666f7220616c6c000000602082015250565b600061410d603d8361369e565b9150614118826140b1565b604082019050919050565b6000602082019050818103600083015261413c81614100565b9050919050565b7f4552433732313a2063616c6c6572206973206e6f7420746f6b656e206f776e6560008201527f72206f7220617070726f76656400000000000000000000000000000000000000602082015250565b600061419f602d8361369e565b91506141aa82614143565b604082019050919050565b600060208201905081810360008301526141ce81614192565b9050919050565b600081905092915050565b50565b60006141f06000836141d5565b91506141fb826141e0565b600082019050919050565b6000614211826141e3565b9150819050919050565b600061422682613693565b61423081856141d5565b93506142408185602086016136af565b80840191505092915050565b6000614258828461421b565b915081905092915050565b7f526567697374657220796f757220556e656d706c6f796564204361726420696e60008201527f666f204669727374000000000000000000000000000000000000000000000000602082015250565b60006142bf60288361369e565b91506142ca82614263565b604082019050919050565b600060208201905081810360008301526142ee816142b2565b9050919050565b7f4e487b7100000000000000000000000000000000000000000000000000000000600052601160045260246000fd5b600061432f82613745565b91507fffffffffffffffffffffffffffffffffffffffffffffffffffffffffffffffff8203614361576143606142f5565b5b600182019050919050565b600060408201905061438160008301856137da565b61438e6020830184613870565b9392505050565b60008190508160005260206000209050919050565b60006020601f8301049050919050565b600082821b905092915050565b6000600883026143f77fffffffffffffffffffffffffffffffffffffffffffffffffffffffffffffffff826143ba565b61440186836143ba565b95508019841693508086168417925050509392505050565b6000819050919050565b600061443e61443961443484613745565b614419565b613745565b9050919050565b6000819050919050565b61445883614423565b61446c61446482614445565b8484546143c7565b825550505050565b600090565b614481614474565b61448c81848461444f565b505050565b5b818110156144b0576144a5600082614479565b600181019050614492565b5050565b601f8211156144f5576144c681614395565b6144cf846143aa565b810160208510156144de578190505b6144f26144ea856143aa565b830182614491565b50505b505050565b600082821c905092915050565b6000614518600019846008026144fa565b1980831691505092915050565b60006145318383614507565b9150826002028217905092915050565b61454a82613693565b67ffffffffffffffff811115614563576145626138f7565b5b61456d8254613fee565b6145788282856144b4565b600060209050601f8311600181146145ab5760008415614599578287015190505b6145a38582614525565b86555061460b565b601f1984166145b986614395565b60005b828110156145e1578489015182556001820191506020850194506020810190506145bc565b868310156145fe57848901516145fa601f891682614507565b8355505b6001600288020188555050505b505050505050565b600061014082019050818103600083015261462e818d6136ea565b90508181036020830152614642818c6136ea565b90508181036040830152614656818b6136ea565b9050818103606083015261466a818a6136ea565b9050818103608083015261467e81896136ea565b905081810360a083015261469281886136ea565b905081810360c08301526146a681876136ea565b905081810360e08301526146ba81866136ea565b90508181036101008301526146cf81856136ea565b90508181036101208301526146e481846136ea565b90509b9a5050505050505050505050565b7f4552433732313a20696e76616c696420746f6b656e2049440000000000000000600082015250565b600061472b60188361369e565b9150614736826146f5565b602082019050919050565b6000602082019050818103600083015261475a8161471e565b9050919050565b7f4552433732313a2061646472657373207a65726f206973206e6f74206120766160008201527f6c6964206f776e65720000000000000000000000000000000000000000000000602082015250565b60006147bd60298361369e565b91506147c882614761565b604082019050919050565b600060208201905081810360008301526147ec816147b0565b9050919050565b7f4d696e7420796f757220556e656d706c6f7965642043617264204e465420666960008201527f7273740000000000000000000000000000000000000000000000000000000000602082015250565b600061484f60238361369e565b915061485a826147f3565b604082019050919050565b6000602082019050818103600083015261487e81614842565b9050919050565b7f4e487b7100000000000000000000000000000000000000000000000000000000600052603260045260246000fd5b60006148bf82613745565b91506148ca83613745565b92508282039050818111156148e2576148e16142f5565b5b92915050565b60006148f382613745565b915060008203614906576149056142f5565b5b600182039050919050565b600060608201905061492660008301866137da565b6149336020830185613870565b6149406040830184613870565b949350505050565b6000614954828561421b565b9150614960828461421b565b91508190509392505050565b7f4552433732313a207472616e736665722066726f6d20696e636f72726563742060008201527f6f776e6572000000000000000000000000000000000000000000000000000000602082015250565b60006149c860258361369e565b91506149d38261496c565b604082019050919050565b600060208201905081810360008301526149f7816149bb565b9050919050565b7f4552433732313a207472616e7366657220746f20746865207a65726f2061646460008201527f7265737300000000000000000000000000000000000000000000000000000000602082015250565b6000614a5a60248361369e565b9150614a65826149fe565b604082019050919050565b60006020820190508181036000830152614a8981614a4d565b9050919050565b7f4552433732313a206d696e7420746f20746865207a65726f2061646472657373600082015250565b6000614ac660208361369e565b9150614ad182614a90565b602082019050919050565b60006020820190508181036000830152614af581614ab9565b9050919050565b7f4552433732313a20746f6b656e20616c7265616479206d696e74656400000000600082015250565b6000614b32601c8361369e565b9150614b3d82614afc565b602082019050919050565b60006020820190508181036000830152614b6181614b25565b9050919050565b7f4552433732313a20617070726f766520746f2063616c6c657200000000000000600082015250565b6000614b9e60198361369e565b9150614ba982614b68565b602082019050919050565b60006020820190508181036000830152614bcd81614b91565b9050919050565b7f4552433732313a207472616e7366657220746f206e6f6e20455243373231526560008201527f63656976657220696d706c656d656e7465720000000000000000000000000000602082015250565b6000614c3060328361369e565b9150614c3b82614bd4565b604082019050919050565b60006020820190508181036000830152614c5f81614c23565b9050919050565b7f4e487b7100000000000000000000000000000000000000000000000000000000600052601260045260246000fd5b600081519050919050565b600082825260208201905092915050565b6000614cbc82614c95565b614cc68185614ca0565b9350614cd68185602086016136af565b614cdf816136d9565b840191505092915050565b6000608082019050614cff60008301876137da565b614d0c60208301866137da565b614d196040830185613870565b8181036060830152614d2b8184614cb1565b905095945050505050565b600081519050614d4581613604565b92915050565b600060208284031215614d6157614d606135ce565b5b6000614d6f84828501614d36565b9150509291505056fea264697066735822122005cc6cf3908cd49353c1327d681223b27f64728ed9cbaf0868d0eb1ee4d55b8364736f6c63430008130033",
  "linkReferences": {},
  "deployedLinkReferences": {}
}